8=FIX.4.3|9=64|35=A|34=6|49=BANZAI|52=20100116-04:53:03.805|56=EXEC|98=0|108=0|10=162|
8=FIX.4.0|9=60|35=A|34=7|49=BANZAI|52=20100116-04:53:03|56=EXEC|98=0|108=0|10=209|
8=FIX.4.2|9=64|35=A|34=6|49=BANZAI|52=20100116-04:53:03.820|56=EXEC|98=0|108=0|10=158|
8=FIX.4.1|9=60|35=A|34=6|49=BANZAI|52=20100116-04:53:03|56=EXEC|98=0|108=0|10=209|
8=FIXT.1.1|9=71|35=A|34=6|49=BANZAI|52=20100116-04:53:03.876|56=EXEC|98=0|108=0|1137=0|10=049|
8=FIX.4.3|9=64|35=A|34=6|49=EXEC|52=20100116-04:53:04.151|56=BANZAI|98=0|108=0|10=157|
8=FIX.4.0|9=60|35=A|34=8|49=EXEC|52=20100116-04:53:04|56=BANZAI|98=0|108=0|10=211|
8=FIX.4.2|9=64|35=A|34=6|49=EXEC|52=20100116-04:53:04.161|56=BANZAI|98=0|108=0|10=157|
8=FIX.4.1|9=60|35=A|34=6|49=EXEC|52=20100116-04:53:04|56=BANZAI|98=0|108=0|10=210|
8=FIX.4.4|9=64|35=A|34=6|49=BANZAI|52=20100116-04:53:03.857|56=EXEC|98=0|108=0|10=170|
8=FIXT.1.1|9=71|35=A|34=6|49=EXEC|52=20100116-04:53:04.712|56=BANZAI|98=0|108=0|1137=0|10=039|
8=FIX.4.4|9=64|35=A|34=6|49=EXEC|52=20100116-04:53:04.714|56=BANZAI|98=0|108=0|10=163|
8=FIX.4.0|9=99|35=D|34=8|49=BANZAI|52=20100116-04:53:13|56=EXEC|11=1263617593309|55=GOOG|59=0|21=0|38=0|40=0|54=0|10=070|
8=FIX.4.0|9=123|35=8|34=9|49=EXEC|52=20100116-04:53:13|56=BANZAI|6=0|11=1263617593309|14=0|20=0|31=0|32=0|39=0|55=GOOG|17=0|37=0|38=0|54=0|10=084|
8=FIX.4.0|9=130|35=8|34=10|49=EXEC|52=20100116-04:53:13|56=BANZAI|6=12.3|11=1263617593309|20=0|31=12.3|55=GOOG|14=0|17=0|32=0|37=0|38=0|39=0|54=0|10=162|
8=FIX.4.2|9=53|35=0|34=7|49=BANZAI|52=20100116-04:53:34.776|56=EXEC|10=180|
8=FIX.4.1|9=49|35=0|34=7|49=BANZAI|52=20100116-04:53:34|56=EXEC|10=230|
8=FIX.4.2|9=53|35=0|34=7|49=EXEC|52=20100116-04:53:34.803|56=BANZAI|10=171|
8=FIX.4.4|9=53|35=0|34=7|49=BANZAI|52=20100116-04:53:34.779|56=EXEC|10=185|
8=FIXT.1.1|9=53|35=0|34=7|49=BANZAI|52=20100116-04:53:34.781|56=EXEC|10=000|
8=FIX.4.1|9=49|35=0|34=7|49=EXEC|52=20100116-04:53:34|56=BANZAI|10=230|
8=FIX.4.4|9=53|35=0|34=7|49=EXEC|52=20100116-04:53:34.816|56=BANZAI|10=177|
8=FIX.4.3|9=53|35=0|34=7|49=BANZAI|52=20100116-04:53:34.774|56=EXEC|10=179|
8=FIXT.1.1|9=53|35=0|34=7|49=EXEC|52=20100116-04:53:34.831|56=BANZAI|10=252|
8=FIX.4.3|9=53|35=0|34=7|49=EXEC|52=20100116-04:53:34.833|56=BANZAI|10=175|
8=FIX.4.0|9=99|35=D|34=9|49=BANZAI|52=20100116-04:53:36|56=EXEC|11=1263617616212|55=GOOG|59=0|21=0|38=0|40=0|54=0|10=065|
8=FIX.4.0|9=124|35=8|34=11|49=EXEC|52=20100116-04:53:36|56=BANZAI|6=0|11=1263617616212|14=0|20=0|31=0|32=0|39=0|55=GOOG|17=0|37=0|38=0|54=0|10=120|
8=FIX.4.0|9=130|35=8|34=12|49=EXEC|52=20100116-04:53:36|56=BANZAI|6=12.3|11=1263617616212|20=0|31=12.3|55=GOOG|14=0|17=0|32=0|37=0|38=0|39=0|54=0|10=158|
