

8=FIX.4.4|9=64|35=D|49=GORD_CLIENT|56=GORD_SERVER|34=2000|52=20100123-17:25:34|11=CLIENT_MACHINE|55=GOOG|54=2|60=20100123-17:25:34|38=100|40=1|10=201|

8=FIX.4.4|9=64|35=D|49=GORD_CLIENT|56=GORD_SERVER|34=2000|52=20100123-17:25:34|11=CLIENT_MACHINE|55=GOOG|54=2|60=20100123-17:25:34|38=100|40=1|10=201|
