8=FIX.4.4|9=99|35=D|34=8|49=BANZAI|52=20100116-04:53:13|56=EXEC|11=1263617593309|55=GOOG|59=0|21=0|38=0|40=0|54=0|10=074|
8=FIX.4.4|9=123|35=8|34=9|49=EXEC|52=20100116-04:53:13|56=BANZAI|6=0|11=1263617593309|14=0|20=0|31=0|32=0|39=0|55=GOOG|17=0|37=0|38=0|54=0|10=088|
8=FIX.4.4|9=130|35=8|34=10|49=EXEC|52=20100116-04:53:13|56=BANZAI|6=12.3|11=1263617593309|20=0|31=12.3|55=GOOG|14=0|17=0|32=0|37=0|38=0|39=0|54=0|10=166|
8=FIX.4.4|9=99|35=D|34=9|49=BANZAI|52=20100116-04:53:36|56=EXEC|11=1263617616212|55=GOOG|59=0|21=0|38=0|40=0|54=0|10=069|
8=FIX.4.4|9=124|35=8|34=11|49=EXEC|52=20100116-04:53:36|56=BANZAI|6=0|11=1263617616212|14=0|20=0|31=0|32=0|39=0|55=GOOG|17=0|37=0|38=0|54=0|10=124|
8=FIX.4.4|9=130|35=8|34=12|49=EXEC|52=20100116-04:53:36|56=BANZAI|6=12.3|11=1263617616212|20=0|31=12.3|55=GOOG|14=0|17=0|32=0|37=0|38=0|39=0|54=0|10=162|
