8=FIX.4.4|9=123|35=8|34=9|49=EXEC|52=20100116-04:53:13|56=BANZAI|6=0|11=1263617593309|14=0|20=0|31=0|32=0|39=0|55=GOOG|17=0|37=0|38=0|54=0|10=088|
