FIX MSG : [8=FIX.4.4|9=49|35=D|49=GORD_CLIENT|56=GORD_SERVER|34=2000|52=20100119-21:54:53|11=CLIENT_MACHINE|54=2|60=20100119-21:54:53|40=1|10=196|]
